:100000000C9434000C943E000C943E000C943E0082
:100010000C943E000C943E000C943E000C943E0068
:100020000C943E000C943E000C943E000C943E0058
:100030000C943E000C943E000C943E000C943E0048
:100040000C943E000C943E000C943E000C943E0038
:100050000C943E000C943E000C943E000C943E0028
:100060000C943E000C943E0011241FBECFEFD8E04C
:10007000DEBFCDBF0E9440000C947A000C940000BB
:100080008FE084B915B881E090E028E034E042E0E8
:1000900051E025B9EFE3FCE93197F1F700C000002A
:1000A00035B9EFE3FCE93197F1F700C0000045B93D
:1000B000EFE3FCE93197F1F700C0000055B9EFE339
:1000C000FCE93197F1F700C00000019680389105F6
:1000D00039F0811561E09607E1F681E090E0D9CF33
:1000E000FFEF6BE772E9F15060407040E1F700C04C
:0800F0000000EFCFF894FFCFF0
:00000001FF
