:100000000C9434000C9451000C9451000C94510049
:100010000C9451000C9451000C9451000C9451001C
:100020000C9451000C9451000C9451000C9451000C
:100030000C9451000C9451000C9451000C945100FC
:100040000C9451000C9451000C9451000C945100EC
:100050000C9451000C9451000C9451000C945100DC
:100060000C9451000C94510011241FBECFEFD8E026
:10007000DEBFCDBF11E0A0E0B1E0E0EAF5E002C0F4
:1000800005900D92A230B107D9F721E0A2E0B1E0CE
:1000900001C01D92A830B207E1F70E94A5020C949E
:1000A000CE020C94000023B130E002C035952795B4
:1000B0008A95E2F720FF0DC09BB181E089278BB9BB
:1000C0002FEF89EF90E0215080409040E1F700C091
:1000D0000000089523B130E0082E02C03595279521
:1000E0000A94E2F720FF1CC02FEF39EF40E02150C7
:1000F00030404040E1F700C00000209106013091FF
:1001000007012F5F3F4F30930701209306015FEFF8
:1001100099EF20E0515090402040E1F700C00000EE
:1001200023B130E0A90102C0559547958A95E2F7C1
:1001300040FF1BC05FEF89EF90E05150804090403E
:10014000E1F700C00000809106019091070101963F
:1001500090930701809306012FEF30E742E0215092
:1001600030404040E1F700C00000809106019091CE
:100170000701029779F4599A5FEF81EE94E05150AC
:1001800080409040E1F700C00000599810920701AC
:1001900010920601089523B130E0082E02C0359573
:1001A00027950A94E2F720FF1CC02FEF39EF40E0BB
:1001B000215030404040E1F700C00000209106018E
:1001C000309107012F5F3F4F3093070120930601C5
:1001D0005FEF99EF20E0515090402040E1F700C0E0
:1001E000000023B130E0082E02C0359527950A940F
:1001F000E2F720FF1CC03FEF49EF50E03150404094
:100200005040E1F700C00000209106013091070145
:100210002F5F3F4F30930701209306019FEF20E7A8
:1002200032E0915020403040E1F700C0000023B19F
:1002300030E0A90102C0559547958A95E2F740FF45
:100240001BC05FEF89EF90E0515080409040E1F794
:1002500000C00000809106019091070101969093E3
:100260000701809306012FEF30E742E02150304034
:100270004040E1F700C00000809106019091070125
:10028000039779F45A9A5FEF81EE94E051508040E1
:100290009040E1F700C000005A98109207011092B8
:1002A0000601089523B130E0082E02C03595279548
:1002B0000A94E2F720FF1CC02FEF39EF40E02150F5
:1002C00030404040E1F700C000002091060130912D
:1002D00007012F5F3F4F30930701209306015FEF27
:1002E00099EF20E0515090402040E1F700C000001D
:1002F00023B130E0082E02C0359527950A94E2F725
:1003000020FF1CC03FEF49EF50E0315040405040CB
:10031000E1F700C0000020910601309107012F5F36
:100320003F4F30930701209306019FEF20E732E013
:10033000915020403040E1F700C0000020910601BC
:10034000309107012230310564F023B130E0A9017A
:1003500002C0559547958A95E2F740FF02C05B9A27
:1003600008955FEF81EE94E0515080409040E1F7B6
:1003700000C000005B9810920701109206010895DA
:1003800023B130E0082E02C0359527950A94E2F794
:1003900020FF1CC02FEF39EF40E02150304040409B
:1003A000E1F700C0000020910601309107012F5FA6
:1003B0003F4F30930701209306015FEF99EF20E054
:1003C000515090402040E1F700C0000023B130E0E0
:1003D000082E02C0359527950A94E2F720FF1CC02D
:1003E0003FEF49EF50E0315040405040E1F700C04E
:1003F000000020910601309107012F5F3F4F30939D
:100400000701209306019FEF20E732E09150204042
:100410003040E1F700C0000023B130E0082E02C0F8
:10042000359527950A94E2F720FF1CC04FEF59EF4E
:1004300090E0415050409040E1F700C00000209112
:100440000601309107012F5F3F4F30930701209342
:1004500006012FEF39EF40E0215030404040E1F7F6
:1004600000C00000209106013091070123303105C2
:1004700064F023B130E0A90102C0559547958A95F3
:10048000E2F740FF02C05C9A08955FEF81EE94E0CE
:10049000515080409040E1F700C000005C981092FD
:1004A00007011092060108959C018091040190912A
:1004B00005012817390744F080910001909101014E
:1004C000281739070CF4C901089523B130E002C0A0
:1004D000359527958A95E2F720FF16C05D9A8091A1
:1004E00002019091030101960E945402909303012E
:1004F000809302012FEF83EC99E0215080409040DF
:10050000E1F700C000005D98089523B130E002C01B
:10051000359527958A95E2F720FF16C05E9A80915F
:1005200002019091030101970E94540290930301EC
:10053000809302012FEF83EC99E02150804090409E
:10054000E1F700C000005E98089584B114B88FEF01
:100550008AB91BB8189B03C080E00E945300199B06
:1005600003C081E00E946A001A9B03C082E00E94DF
:10057000CB001B9B03C083E00E9452011C9B03C065
:1005800084E00E94C0011D9B03C085E00E946502BB
:100590001E9BE0CF86E00E948502DCCFF894FFCF5F
:0205A0006400F5
:00000001FF
