:100000000C9434000C943E000C943E000C943E0082
:100010000C943E000C943E000C943E000C943E0068
:100020000C943E000C943E000C943E000C943E0058
:100030000C943E000C943E000C943E000C943E0048
:100040000C943E000C943E000C943E000C943E0038
:100050000C943E000C943E000C943E000C943E0028
:100060000C943E000C943E0011241FBECFEFD8E04C
:10007000DEBFCDBF0E944C000C945B000C940000CE
:10008000019741F4589A8FE39CE90197F1F700C07A
:10009000000008955898089525988FEF8AB91BB8E5
:1000A000C0E0D0E01D992196CE010E944000C230F0
:0A00B000D105B4F7F7CFF894FFCFA5
:00000001FF
