:100000000C9434000C943E000C943E000C943E0082
:100010000C943E000C943E000C943E000C943E0068
:100020000C943E000C943E000C943E000C943E0058
:100030000C943E000C943E000C943E000C943E0048
:100040000C943E000C943E000C943E000C943E0038
:100050000C943E000C943E000C943E000C943E0028
:100060000C943E000C943E0011241FBECFEFD8E04C
:10007000DEBFCDBF0E9440000C94C4000C94000071
:1000800084B114B88FEF8AB91BB880E090E01D9B53
:1000900013C02FEF39EF40E0215030404040E1F7EE
:1000A00000C0000001962FEF39EF40E021503040B2
:1000B0004040E1F700C000001D9B13C02FEF39EF57
:1000C00040E0215030404040E1F700C00000019680
:1000D0002FEF30E742E0215030404040E1F700C0D0
:1000E00000001D9B14C02FEF39EF40E0215030403D
:1000F0004040E1F700C0000001962FEF30E742E0FA
:10010000215030404040E1F700C000000CC0833077
:10011000910549F45A9A8FEF91EE24E08150904076
:100120002040E1F71AC082309105DCF01D9B09C028
:100130005B9A3FEF41EE84E0315040408040E1F770
:100140000CC08230910509F0A2CF599A9FEF21EEA1
:1001500034E0915020403040E1F700C000008BB106
:1001600093CF8130910509F092CF489902C0589AF7
:1001700001C01BB84FEF81EE94E0415080409040A9
:0C018000E1F700C0000081CFF894FFCF31
:00000001FF
