:100000000C9434000C943E000C943E000C943E0082
:100010000C943E000C943E000C943E000C943E0068
:100020000C943E000C943E000C943E000C943E0058
:100030000C943E000C943E000C943E000C943E0048
:100040000C943E000C943E000C943E000C943E0038
:100050000C943E000C943E000C943E000C943E0028
:100060000C943E000C943E0011241FBECFEFD8E04C
:10007000DEBFCDBF0E9440000C9479000C940000BC
:1000800084B1866084B910928B0010928A008091AE
:10009000810088608093810080918000836A8093D2
:1000A00080008091810081608093810080E090E0F9
:1000B00090938B0080938A00EFE3FCE93197F1F78E
:1000C00000C0000005968130F4E09F0789F78FEFAC
:1000D00093E090938B0080938A00EFE3FCE93197E3
:1000E000F1F700C0000005978E3FFFEF9F0789F7EB
:0600F000DDCFF894FFCF04
:00000001FF
