:100000000C9434000C9449000C9449000C94490061
:100010000C9449000C9449000C9449000C9449003C
:100020000C9449000C9449000C9449000C9449002C
:100030000C9449000C9449000C9449000C9449001C
:100040000C9449000C9449000C9449000C9449000C
:100050000C9449000C9449000C9449000C944900FC
:100060000C9449000C94490011241FBECFEFD8E036
:10007000DEBFCDBF16E0A0E0B1E0E0E2F1E002C0FB
:1000800005900D92A232B107D9F70E946C000C9432
:100090008E000C940000ECE6F4E0C8EED2E0A0E0A4
:1000A000B1E081919191909389008093880089912A
:1000B000999190938B0080938A008C9112968093F3
:1000C000B3008FE39FE10197F1F700C0000098E0D3
:1000D000EC36F90731F7DFCF84B18E6084B9109226
:1000E00089001092880010928B0010928A00109262
:1000F000B300E1E8F0E0808188618083A0E8B0E0AF
:100100008C91826A8C938081816080838FEF9FEFD6
:1001100090938700809386000E944B00F894FFCF55
:10012000000033331835FD36E238C73AAC3C913E17
:100130009C62B760D25EED5C085B23593E5759550F
:1001400074538F515A663F68CCCC5CCAECC77CC5EF
:100150000CC39CC02CBEBCBB4CB9DCB66CB4FCB1AF
:100160008CAF1CADACAA3CA8CCA55CA368534D5584
:1001700032571759FC5AE15CC65EAB6090627564F9
:10018000ECA00429302A5C2B882CB42DE02E0C30F6
:1001900038311C3E483F7440A041CC42F8432445CE
:1001A00050467C47A84864329033BC34E835143755
:1001B00040386C39983AC43BF03CD449004B2C4C45
:1001C000584D844EB04FDC50085234536054345371
:1001D0000852DC50B04F844E584D2C4C004BD44943
:1001E000A8487C4750462445F843CC42A04174407F
:1001F000483F1C3EF03C643290337C9E0C9C9C99A2
:100200002C97BC944C92DC8F6C8DFC8A2C70BC6D4E
:100210004C6BDC682C707C77CC7E1C866C8DBC941F
:100220000C9C5CA3ACAAFCB14CB99CC0ECC73CCF05
:100230006666816476405B42404425460A48EF4941
:10024000D44BB94D9E4F8351AA4F41F547F44DF31E
:1002500053F259F15FF065EF6BEE71EDC43B983AE4
:100260006C3940381437E835BC3490336432383157
:10027000ECA07C9E0C9C9C992C97BC944C92DC8F9F
:100280006C8DFC8A8C881C86AC833C81CC7E5C7C2B
:10029000EC797C770C759C722C70BC6D4C6BDC68B7
:1002A0002C707C77CC7E1C866C8DBC940C9C5CA3E3
:1002B000ACAAFCB14CB99CC0ECC73CCF666681646B
:1002C0009C62B760D25EED5C085B23593E5759557E
:1002D00074538F51AA4FC54DE04BFB491648314628
:1002E0004C44674282409D3E8C881C86AC833C8196
:1002F000CC7E5C7CEC797C770C759C72B83CD33AF4
:10030000EE38093724353F33000033331835FD36D6
:10031000E238C73AAC3C913E76405B4240442546C9
:100320000A48EF49D44BB94D9E4F835168534D5500
:1003300032571759FC5AE15CC65EAB609062756437
:100340005A663F68CCCC5CCAECC77CC50CC39CC069
:100350002CBEBCBB64329033BC34E8351437403813
:100360006C39983AC43BF03C4CB9DCB66CB4FCB187
:100370008CAF1CADACAA3CA8CCA55CA37C47504676
:100380002445F843CC42A0417440483F1C3EF03C19
:1003900064329033BC34E835143740386C39983ABD
:1003A000C43BF03C1C3E483F7440A041CC42F84363
:1003B000244550467C47A848D449004B2C4C584D06
:1003C000844EB04FDC50085234536054FFFF05FF99
:1003D0000BFE11FD17FC1DFB23FA29F92FF835F749
:1003E0003BF641F547F44DF353F259F15FF065EFF9
:1003F0006BEE71EDC43B983A6C3940381437E835F0
:10040000BC34903364323831ECA07C9E0C9C9C99B7
:100410002C97BC944C92DC8F6C8DFC8A8C881C864B
:10042000AC833C81CC7E5C7CEC797C770C759C72D7
:100430002C70BC6D4C6BDC682C707C77CC7E1C8681
:100440006C8DBC940C9C5CA3ACAAFCB14CB99CC058
:10045000ECC73CCF666681649C62B760D25EED5C9F
:10046000085B23593E57595574538F51AA4FC54DB8
:10047000E04BFB49164831464C44674282409D3E62
:10048000B83CD33AEE38093724353F3300002C010D
:1004900058028403B004DC050807340860099C187E
:1004A000C819F41A201C4C1D781EA41FD020FC2152
:1004B0002823542480258C0AB80BE40C100E3C0F22
:1004C00068109411C012EC13181544167017AC265E
:1004D000D8278BBF91BE97BD9DBCA3BBA9BAAFB9AE
:1004E000B5B8BBB7C1B6C7B5CDB4D3B3D9B2DFB118
:1004F000E5B0EBAFF1AEF7ADFDACBC34E835143789
:1005000040386C39983AC43BF03C1C3E483F74403C
:10051000A041CC42F843244550467C47A848D449E2
:10052000004B2C4C584D844EB04FDC500852345385
:100530006054FFFF5B42404425460A48EF49D44BD4
:10054000B94D9E4F835168534D5532571759FC5A38
:10055000E15CC65EAB60906275645A663F68CCCC65
:100560005CCAECC77CC50CC39CC02CBEBCBB64324F
:10057000C54DE04BFB49164831464C44674282402A
:100580009D3EB83C37CD3DCC43CB49CA4FC955C839
:100590005BC761C667C56DC473C379C27FC185C0BF
:1005A00005FF0BFE11FD17FC1DFB23FA29F92FF89F
:1005B00035F73BF641F547F44DF353F259F15FF04F
:1005C00065EF6BEE71EDC43B983A6C3940381437E7
:1005D000E835BC3490336432383177EC7DEB83EA14
:1005E00089E98FE895E79BE6A1E5A7E4ADE3B3E2EF
:1005F000B9E1BFE0C5DFCBDED1DDD7DCDDDBE3DA9F
:10060000E9D9EFD8F5D7FBD601D607D50DD413D34A
:1006100019D21FD125D02BCF31CE5CA3ACAAFCB10F
:100620004CB99CC0ECC73CCF666681649C62B760E5
:10063000D25EED5C085B23593E57595574538F5178
:02064000CB00ED
:00000001FF
