:100000000C9434000C9451000C9451000C94510049
:100010000C9451000C9451000C9451000C9451001C
:100020000C9451000C9451000C9451000C9451000C
:100030000C9451000C9451000C9451000C945100FC
:100040000C9451000C9451000C9451000C945100EC
:100050000C9451000C9451000C9451000C945100DC
:100060000C9451000C94510011241FBECFEFD8E026
:10007000DEBFCDBF11E0A0E0B1E0E2EEFCE002C0E7
:1000800005900D92A631B107D9F721E0A6E1B1E0C4
:1000900001C01D92A232B207E1F70E9476000C94D3
:1000A0006F060C9400009091C00095FFFCCF8093E8
:1000B000C60008958091C00087FFFCCF8091C600E4
:1000C00090E0089526E02093C2001092C000909323
:1000D000C5008093C40088E18093C100089588EC36
:1000E00080937C0086E880937A0008950E946F00D8
:1000F00087E690E00E94620060E070E083E590E0B7
:100100000E94020290931B0180931A016AE570E03D
:1001100080E090E00E940202909319018093180100
:10012000C6E0D1E080917A00806480937A0080916B
:100130007A0086FDFCCF60917800709179006A5357
:10014000714080E090E00E94740126EF38E24CE9B3
:100150005FE30E94CC000E943E0160931601709301
:10016000170180917C007F936F9388701F928F930B
:10017000DF93CF930E944D029FEF21EE84E09150D8
:1001800020408040E1F700C000000F900F900F90DA
:100190000F900F900F90C6CF0E94E0000C94C80102
:1001A0000E94C10158F00E94BA0140F029F45F3F5B
:1001B00029F00C94B10151110C94FC010C94B7017D
:1001C0000E94D90168F39923B1F3552391F3951B4C
:1001D000550BBB27AA2762177307840738F09F5F68
:1001E0005F4F220F331F441FAA1FA9F335D00E2ED5
:1001F0003AF0E0E832D091505040E695001CCAF742
:100200002BD0FE2F29D0660F771F881FBB1F261704
:1002100037074807AB07B0E809F0BB0B802DBF01DB
:10022000FF2793585F4F3AF09E3F510578F00C94AA
:10023000B1010C94FC015F3FE4F3983ED4F3869542
:1002400077956795B795F7959F5FC9F7880F911DCB
:100250009695879597F90895E1E0660F771F881FB7
:10026000BB1F621773078407BA0720F0621B730B6A
:10027000840BBA0BEE1F88F7E09508950E944501A4
:100280006894B1110C94FC0108950E94E10188F07A
:100290009F5798F0B92F9927B751B0F0E1F0660F4A
:1002A000771F881F991F1AF0BA95C9F714C0B1308B
:1002B00091F00E94FB01B1E008950C94FB01672FBF
:1002C000782F8827B85F39F0B93FCCF386957795BA
:1002D0006795B395D9F73EF49095809570956195A3
:1002E0007F4F8F4F9F4F0895E89409C097FB3EF4CE
:1002F00090958095709561957F4F8F4F9F4F992373
:10030000A9F0F92F96E9BB279395F69587957795F0
:100310006795B795F111F8CFFAF4BB0F11F460FFB0
:100320001BC06F5F7F4F8F4F9F4F16C0882311F008
:1003300096E911C0772321F09EE8872F762F05C01C
:10034000662371F096E8862F70E060E02AF09A95B7
:10035000660F771F881FDAF7880F9695879597F9AC
:10036000089597F99F6780E870E060E008959FEF37
:1003700080EC089500240A9416161706180609063C
:10038000089500240A94121613061406050608950B
:10039000092E0394000C11F4882352F0BB0F40F493
:1003A000BF2B11F460FF04C06F5F7F4F8F4F9F4FD3
:1003B000089557FD9058440F551F59F05F3F71F055
:1003C0004795880F97FB991F61F09F3F79F08795BC
:1003D0000895121613061406551FF2CF4695F1DF45
:1003E00008C0161617061806991FF1CF86957105D5
:1003F000610508940895E894BB2766277727CB0109
:1004000097F908950F931F93CF93DF93009731F4DB
:100410006115710519F480E090E03AC08B01EC01A0
:100420006EE070E081E090E00E944404FC01892BC2
:1004300091F380E883830115110571F0138702871A
:1004400081E883838091180190911901892B21F40F
:10045000F0931901E09318012097C9F0D187C08764
:1004600083818260838380911A0190911B01892B83
:1004700071F4F0931B01E0931A0180911C0190919B
:100480001D01892B21F4F0931D01E0931C01CF0184
:10049000DF91CF911F910F910895A0E0B0E0E3E5C7
:1004A000F2E00C944806AE014B5F5F4FFA01619198
:1004B0007191AF0180911A0190911B010E9463021A
:1004C000E2E00C946406ABE0B0E0E9E6F2E00C9404
:1004D00038066C017B018A01FC0117821682838138
:1004E00081FFCCC1CE0101963C01F6019381F70159
:1004F00093FD859193FF81917F01882309F4BAC10F
:10050000853239F493FD859193FF81917F01853286
:1005100029F4B60190E00E949E05E7CF912C212C92
:10052000312CFFE1F315D8F08B3279F038F48032BA
:1005300079F08332A1F4232D20611DC08D3261F04A
:10054000803369F4232D216016C0832D8260382EFC
:10055000E32DE4603E2E2AC0F32DF8601DC037FC69
:100560002DC020ED280F2A3040F08E32B9F436FC31
:1005700081C1232D2064322E19C036FE06C08AE0C8
:10058000989E200D1124922E11C0EAE02E9E200D7F
:100590001124222EF32DF0623F2E08C08C3621F458
:1005A000832D8068382E02C0883641F4F70193FD10
:1005B000859193FF81917F018111B3CF982F9F7D0A
:1005C0009554933028F40C5F1F4F9FE399830DC01F
:1005D000833631F0833771F0833509F059C021C07B
:1005E000F801808189830E5F1F4F88248394912CAA
:1005F000530113C02801F2E04F0E511CF801A080F6
:10060000B18036FE03C0692D70E002C06FEF7FEF4E
:10061000C5010E9493054C018201F32DFF773F2E07
:1006200016C0280122E0420E511CF801A080B180C2
:1006300036FE03C0692D70E002C06FEF7FEFC50189
:100640000E9481054C01F32DF0683F2E820133FC9E
:100650001BC0822D90E088169906B0F4B60180E2A6
:1006600090E00E949E052A94F4CFF50137FC859115
:1006700037FE81915F01B60190E00E949E05211036
:100680002A9421E0821A91088114910471F7E8C03C
:10069000843611F0893641F5F80137FE07C06081D4
:1006A0007181828193810C5F1F4F08C060817181CD
:1006B000072E000C880B990B0E5F1F4FF32DFF7652
:1006C0003F2E97FF09C090958095709561957F4F5B
:1006D0008F4F9F4FF0683F2E2AE030E0A3010E9429
:1006E000DA05882E861845C0853731F4232D2F7EF4
:1006F000B22E2AE030E025C0932D997FB92E8F3697
:10070000C1F018F4883579F0B5C0803719F0883712
:1007100021F0B0C0E92FE061BE2EB4FE0DC0FB2D6C
:10072000F460BF2E09C034FE0AC0292F2660B22E05
:1007300006C028E030E005C020E130E002C020E142
:1007400032E0F801B7FE07C0608171818281938138
:100750000C5F1F4F06C06081718180E090E00E5FEA
:100760001F4FA3010E94DA05882E8618FB2DFF7704
:100770003F2E36FE0DC0232D2E7FA22E891458F455
:1007800034FE0BC032FC09C0832D8E7EA82E05C01E
:10079000B82CA32C03C0B82C01C0B92CA4FE0FC0E8
:1007A000FE01E80DF11D8081803321F49A2D997EA0
:1007B000A92E09C0A2FE06C0B394B39404C08A2D2A
:1007C000867809F0B394A3FC11C0A0FE06C0B21451
:1007D00088F4280C922C9B180EC0B21460F4B60159
:1007E00080E290E00E949E05B394F7CFB21418F413
:1007F0002B1802C0982C212CA4FE10C0B60180E357
:1008000090E00E949E05A2FE17C0A1FC03C088E7ED
:1008100090E002C088E590E0B6010CC08A2D867891
:1008200059F0A1FE02C08BE201C080E2A7FC8DE27C
:10083000B60190E00E949E05891438F4B60180E369
:1008400090E00E949E059A94F7CF8A94F301E80DF8
:10085000F11D8081B60190E00E949E058110F5CFC8
:10086000222009F442CEB60180E290E00E949E056B
:100870002A94F6CFF6018681978102C08FEF9FEF11
:100880002B96E2E10C9454060F931F93CF93DF93C2
:10089000869F8001879F100D969F100D1124C8011F
:1008A0000E946004EC01009729F0A80160E070E06C
:1008B0000E948C05CE01DF91CF911F910F91089579
:1008C0000F931F93CF93DF938230910510F482E052
:1008D00090E0E0912001F091210120E030E0A0E0E3
:1008E000B0E0309719F1408151810281138148179E
:1008F0005907C8F08417950769F4109731F01296DC
:100900000C93129713961C9327C000932001109309
:10091000210122C02115310519F04217530718F49F
:100920009A01BD01EF01DF01F801DBCF211531058F
:10093000F9F0281B390B2430310580F48A819B8122
:100940006115710521F0FB019383828304C09093AC
:10095000210180932001FE01329644C0FE01E20F86
:10096000F31F8193919322503109398328833AC030
:1009700020911E0130911F01232B41F4209102018F
:100980003091030130931F0120931E01209100013B
:10099000309101012115310541F42DB73EB7409149
:1009A000040150910501241B350BE0911E01F091CB
:1009B0001F01E217F307A0F42E1B3F0B281739077E
:1009C00078F0AC014E5F5F4F2417350748F04E0FAB
:1009D0005F1F50931F0140931E018193919302C0AA
:1009E000E0E0F0E0CF01DF91CF911F910F910895EA
:1009F000CF93DF93009709F481C0FC0132971382F3
:100A00001282A0912001B0912101109781F42081E0
:100A10003181820F931F20911E0130911F012817F1
:100A2000390751F5F0931F01E0931E0167C0ED01F6
:100A300020E030E0CE17DF0740F44A815B819E0161
:100A400041155105F1F0EA01F5CFD383C28340810E
:100A50005181840F951FC817D90759F4888199814E
:100A6000840F951F0296918380838A819B81938353
:100A700082832115310529F4F0932101E0932001AF
:100A80003DC0E901FB83EA8349915991C40FD51F09
:100A9000EC17FD0761F480819181840F951F029608
:100AA000E90199838883828193819B838A83E0E033
:100AB000F0E012968D919C911397009719F0FD012B
:100AC000DC01F7CF8D919C9111979D012E5F3F4FD7
:100AD000820F931F20911E0130911F0128173907A3
:100AE00069F4309729F4109221011092200102C07C
:100AF00013821282B0931F01A0931E01DF91CF9148
:100B00000895FC010590615070400110D8F7809560
:100B100090958E0F9F1F0895DC0101C06D93415089
:100B20005040E0F70895FC016150704001900110C1
:100B3000D8F7809590958E0F9F1F08950F931F9360
:100B4000CF93DF93FB01238121FD03C08FEF9FEF44
:100B50002CC022FF16C0468157812481358142175F
:100B6000530744F4A081B1819D012F5F3F4F318332
:100B700020838C93268137812F5F3F4F37832683D5
:100B800014C08B01EC01FB010084F185E02D099577
:100B9000892BE1F6D80116968D919C9117970196B5
:100BA00017969C938E931697CE01DF91CF911F914C
:100BB0000F910895FA01AA27283051F1203181F1CF
:100BC000E8946F936E7F6E5F7F4F8F4F9F4FAF4F55
:100BD000B1E03ED0B4E03CD0670F781F891F9A1F68
:100BE000A11D680F791F8A1F911DA11D6A0F711D1C
:100BF000811D911DA11D20D009F468943F912AE028
:100C0000269F11243019305D3193DEF6CF0108950F
:100C1000462F4770405D4193B3E00FD0C9F7F6CF40
:100C2000462F4F70405D4A3318F0495D31FD405208
:100C3000419302D0A9F7EACFB4E0A695979587959E
:100C400077956795BA95C9F700976105710508957D
:100C50009B01AC010A2E0694579547953795279529
:100C6000BA95C9F7620F731F841F951FA01D0895C1
:100C70002F923F924F925F926F927F928F929F92AC
:100C8000AF92BF92CF92DF92EF92FF920F931F939A
:100C9000CF93DF93CDB7DEB7CA1BDB0B0FB6F8944B
:100CA000DEBF0FBECDBF09942A88398848885F848B
:100CB0006E847D848C849B84AA84B984C884DF80FC
:100CC000EE80FD800C811B81AA81B981CE0FD11DE0
:100CD0000FB6F894DEBF0FBECDBFED010895F894B6
:020CE000FFCF44
:100CE2000000220120007B22616463302564223AE5
:060CF20025647D0A0000EC
:00000001FF
