:100000000C943A000C9457000C9457000C94570031
:100010000C9457000C9457000C9457000C94570004
:100020000C9457000C9457000C9457000C945700F4
:100030000C9457000C9457000C9457000C945700E4
:100040000C9457000C9457000C9457000C945700D4
:100050000C9457000C9457000C9457000C945700C4
:100060000C9457000C9457006364696E6F7073753D
:1000700078585B0011241FBECFEFD8E0DEBFCDBFA4
:1000800011E0A0E0B1E0EEEAFBE002C005900D92C5
:10009000A632B107D9F721E0A6E2B1E001C01D9276
:1000A000A033B207E1F70E9475000C94D5050C94BB
:1000B00000009091C00095FFFCCF8093C60008958A
:1000C0008091C00087FFFCCF8091C60090E008952A
:1000D00026E02093C2001092C0009093C500809348
:1000E000C40088E18093C1000895CF93DF931F92ED
:1000F000CDB7DEB787E690E00E94680060E070E070
:1001000089E590E00E94AE00909329018093280138
:1001100060E670E080E090E00E94AE0090932701DE
:1001200080932601259A2D98CE0101967C0106E048
:1001300011E0FF92EF921F930F930E9429010F90FD
:100140000F900F900F908981803319F489E091E02E
:1001500002C085E191E00E94F900EBCF0F931F935D
:10016000CF93DF93009731F46115710519F480E0A6
:1001700090E03AC08B01EC016EE070E081E090E02D
:100180000E94EC03FC01892B91F380E88383011525
:10019000110571F01387028781E88383809126011E
:1001A00090912701892B21F4F0932701E0932601F8
:1001B0002097C9F0D187C087838182608383809133
:1001C000280190912901892B71F4F0932901E09382
:1001D000280180912A0190912B01892B21F4F09321
:1001E0002B01E0932A01CF01DF91CF911F910F9155
:1001F00008950F931F93CF93DF93E0912801F0911F
:100200002901238121FF1BC08C01D0E0C0E0F8014F
:1002100081918F016091280170912901DB0118966D
:10022000ED91FC911997882331F00995892B79F389
:10023000DFEFCFEFECCF8AE00995892B19F08FEF34
:100240009FEF02C08D2F9C2FDF91CF911F910F91B7
:100250000895A0E0B0E0EFE2F1E00C94AE05AE014D
:100260004B5F5F4FFA0161917191AF01809126015F
:10027000909127010E94DB02E2E00C94CA0520FD68
:1002800009C0FC0123FD05C022FF02C07383628305
:1002900051834083089544FD17C046FD17C0AB014C
:1002A000BC01DA01FB01AA0FBB1FEE1FFF1F109458
:1002B000D1F74A0F5B1F6E1F7F1FCB01BA01660F7C
:1002C000771F881F991F09C033E001C034E0660F13
:1002D000771F881F991F3150D1F7620F711D811D43
:1002E000911D08950F931F93CF93DF938C01C80145
:1002F0000E944405EC0197FD08C00E942905892B46
:10030000B1F7B801CE010E948205CE01DF91CF91F5
:100310001F910F9108958F929F92AF92BF92EF928B
:10032000FF920F931F93CF93DF938C01D62F7A0107
:10033000B22E0E9444059C0133272B32310531F047
:100340002D32310561F48B2D8068B82ED15011F417
:1003500080E068C0C8010E94440597FDF9CFCB2D0D
:10036000CD7F2B2D207309F58033F9F4AA24AA94AC
:10037000AD0E09F443C0C8010E94440597FD3EC07C
:100380009C012F7D33272835310549F4C264D250B2
:10039000A9F1C8010E94440597FF07C02FC0B6FE0F
:1003A00002C0C26001C0C261DA2D812C912C5401BF
:1003B00020ED280F283080F0C4FF04C0B8010E944F
:1003C000820519C02A3040F0C6FFF8CF2F7D3FEEDE
:1003D000320F363098F727504C2FC501B4010E94D8
:1003E0004B014B015C01C260D15059F0C8010E9421
:1003F000440597FFDDCFC1FD04C0AACF812C912C0D
:100400005401C7FF08C0B094A09490948094811CBC
:10041000911CA11CB11C2C2FB501A401C7010E9485
:100420003F0181E0DF91CF911F910F91FF90EF90FD
:10043000BF90AF909F908F900895A0E2B0E0E3E26C
:10044000F2E00C94A1055C01962E7A01F9018E016F
:100450000F5F1F4F680180E2D8011D928A95E9F76E
:10046000D50113968C9080E090E0612C712C30E0E7
:1004700061E070E083FC259183FE21918F01522E73
:10048000211103C080E090E092C02E3511F4009756
:1004900051F1432F50E0481759073CF42D3559F1DD
:1004A0002D3219F4772009F103C0772009F46AC0CE
:1004B000452D469546954695D601A40FB11D452D6F
:1004C00047708B0102C0000F111F4A95E2F7A80187
:1004D0005C91452B4C93651459F0561410F45394C9
:1004E000E7CF5A94E5CF31E004C07724739401C07C
:1004F000712C0196BFCF772019F08E8180628E8398
:10050000311103C08824839417C0F6019E012F5D2A
:100510003F4F8081809581932E173F07D1F7F2CF0F
:10052000E114F10429F0D7018C93F70131967F0192
:100530009A94812C9920F9F0C5010E94440597FDF9
:1005400018C0FC01FF2723E0F595E7952A95E1F710
:10055000EC0DFD1D208130E0AC014770552702C035
:10056000359527954A95E2F720FDDACFB5010E942F
:100570008205811087CFE114F10411F0D7011C929C
:10058000C80115C0422F469546954695D601A40F41
:10059000B11D422F47708B0102C0000F111F4A95F9
:1005A000E2F7A8015C91452B4C93622EA2CFA09656
:1005B000EFE00C94BD05A0E0B0E0E1EEF2E00C94B9
:1005C000A1056C01EB015A01FC0117821682512C26
:1005D000F601E380FE01E3FC8591E3FE8191182F93
:1005E000EF01882309F4EEC090E00E942905892BD1
:1005F00021F0C6010E947201EBCF153241F4FE01D9
:10060000E3FC1591E3FE1191EF01153281F4C6016F
:100610000E94440597FDD4C0412F50E09C01332730
:1006200024173507A9F2B6010E948205CBC01A3201
:1006300039F4E3FC1591E3FE1191EF0101E001C0F3
:1006400000E0F12C20ED210F2A3080F402606F2DA4
:1006500070E080E090E040E20E944B01F62EFE0147
:10066000E3FC1591E3FE1191EF01ECCF01FF03C014
:10067000F11003C0A7C0FF24FA94183619F01C36F5
:1006800051F010C0FE01E3FC1591E3FE1191EF0162
:10069000183641F408600460FE01E3FC1591E3FEA6
:1006A0001191EF01112309F48DC0612F70E088E6EC
:1006B00090E00E943205892B09F484C000FD07C038
:1006C000F50180809180C50102965C0102C0812CF9
:1006D000912C1E3651F4F6014681578160E070E09E
:1006E000202FC4010E943F0173CF1336A9F401FDEE
:1006F00002C0FF24F394C6010E94440597FD60C028
:100700008114910429F0F4018083C40101964C0105
:10071000FA94F110F0CF50C01B3559F49E01A4019A
:100720006F2DC6010E941D02EC01892B09F044C007
:100730003EC0C6010E94720197FD42C01F3661F1A2
:1007400028F4143639F1193651F128C0133771F0F5
:10075000153701F123C08114910429F0F40160825E
:10076000C40101964C01FA94FF2071F0C6010E9469
:1007700044053C0197FD08C00E942905892B59F3C7
:10078000B601C3010E94820581149104A9F0F4010D
:10079000108212C0006203C0006101C00064202FFB
:1007A000A4016F2DC6010E948B01811105C0F601C5
:1007B0008381807329F406C000FD0ACF539408CFCB
:1007C000552019F0852D90E002C08FEF9FEFCDB737
:1007D000DEB7EFE00C94BD050F931F93CF93DF932B
:1007E000869F8001879F100D969F100D1124C801D0
:1007F0000E940804EC01009729F0A80160E070E075
:100800000E943D05CE01DF91CF911F910F91089578
:100810000F931F93CF93DF938230910510F482E002
:1008200090E0E0912E01F0912F0120E030E0A0E077
:10083000B0E0309719F1408151810281138148174E
:100840005907C8F08417950769F4109731F012968C
:100850000C93129713961C9327C000932E011093AC
:100860002F0122C02115310519F04217530718F442
:100870009A01BD01EF01DF01F801DBCF2115310540
:10088000F9F0281B390B2430310580F48A819B81D3
:100890006115710521F0FB019383828304C090935D
:1008A0002F0180932E01FE01329644C0FE01E20F1B
:1008B000F31F8193919322503109398328833AC0E1
:1008C00020912C0130912D01232B41F42091020124
:1008D0003091030130932D0120932C0120910001D0
:1008E000309101012115310541F42DB73EB74091FA
:1008F000040150910501241B350BE0912C01F0916E
:100900002D01E217F307A0F42E1B3F0B2817390720
:1009100078F0AC014E5F5F4F2417350748F04E0F5B
:100920005F1F50932D0140932C018193919302C03E
:10093000E0E0F0E0CF01DF91CF911F910F9108959A
:10094000CF93DF93009709F481C0FC0132971382A3
:100950001282A0912E01B0912F01109781F4208175
:100960003181820F931F20912C0130912D01281786
:10097000390751F5F0932D01E0932C0167C0ED018B
:1009800020E030E0CE17DF0740F44A815B819E0112
:1009900041155105F1F0EA01F5CFD383C2834081BF
:1009A0005181840F951FC817D90759F488819981FF
:1009B000840F951F0296918380838A819B81938304
:1009C00082832115310529F4F0932F01E0932E0144
:1009D0003DC0E901FB83EA8349915991C40FD51FBA
:1009E000EC17FD0761F480819181840F951F0296B9
:1009F000E90199838883828193819B838A83E0E0E4
:100A0000F0E012968D919C911397009719F0FD01DB
:100A1000DC01F7CF8D919C9111979D012E5F3F4F87
:100A2000820F931F20912C0130912D012817390737
:100A300069F4309729F410922F0110922E0102C010
:100A400013821282B0932D01A0932C01DF91CF91DC
:100A5000089591110C949B05803219F089508550AE
:100A6000C8F70895FC010590061621F00020D9F77B
:100A7000C00108953197CF010895DC0101C06D9345
:100A800041505040E0F70895CF93DF93EC012B8164
:100A900020FF33C026FF0AC02F7B2B838E819F81CE
:100AA00001969F838E838A8190E029C022FF0FC028
:100AB000E881F9818081082E000C990B009719F4C8
:100AC00020622B831AC03196F983E8830EC0EA8531
:100AD000FB85099597FF09C02B81019611F080E2F3
:100AE00001C080E1822B8B8308C02E813F812F5F64
:100AF0003F4F3F832E83992702C08FEF9FEFDF91F7
:100B0000CF910895FB01238120FF12C026FD10C064
:100B10008F3F3FEF930761F082832F7D2064238313
:100B200026813781215031093783268399270895FB
:100B30008FEF9FEF08959927882708952F923F926E
:100B40004F925F926F927F928F929F92AF92BF92DD
:100B5000CF92DF92EF92FF920F931F93CF93DF9389
:100B6000CDB7DEB7CA1BDB0B0FB6F894DEBF0FBEE6
:100B7000CDBF09942A88398848885F846E847D8433
:100B80008C849B84AA84B984C884DF80EE80FD8035
:100B90000C811B81AA81B981CE0FD11D0FB6F894AB
:0E0BA000DEBF0FBECDBFED010895F894FFCF6C
:100BAE000000300120002563004C6564204368611D
:100BBE006E676564004E6F7468696E672043686186
:060BCE006E676564000083
:00000001FF
