:100000000C9434000C949F000C9451000C945100FB
:100010000C9451000C9451000C9451000C9451001C
:100020000C9451000C9451000C9451000C9451000C
:100030000C9451000C9471000C9451000C945100DC
:100040000C9451000C9451000C9451000C945100EC
:100050000C9451000C9451000C9451000C945100DC
:100060000C9451000C94510011241FBECFEFD8E026
:10007000DEBFCDBF11E0A0E0B1E0E2E7FCE002C0EE
:1000800005900D92A833B107D9F721E0A8E3B1E0BC
:1000900001C01D92A435B207E1F70E944C010C94F7
:1000A00037060C9400009091C00095FFFCCF809320
:1000B000C60080E090E0089526E02093C2001092F0
:1000C000C0009093C5008093C40088E08093C10075
:1000D00008958091C00087FFFCCF8091C60090E01A
:1000E00008951F920F920FB60F9211248F939F9332
:1000F000AF93BF938091400190914101A091420143
:10010000B09143010196A11DB11D809340019093D0
:100110004101A0934201B0934301BF91AF919F91E0
:100120008F910F900FBE0F901F9018951092800026
:1001300083E08093810081E080936F0008951F9297
:100140000F920FB60F9211242F933F934F935F930B
:100150006F937F938F939F93AF93BF9380913B0156
:1001600081110FC0109285001092840010924001FE
:1001700010924101109242011092430181E080935C
:100180003B018091440190914501449754F4809142
:10019000440190914501019690934501809344015B
:1001A00060C0809138019091390101969093390196
:1001B000809338018091460190914701A0914801B8
:1001C000B09149010196A11DB11D80934601909304
:1001D0004701A0934801B093490181E080933A011F
:1001E000109245011092440180914001909141018B
:1001F000A0914201B091430120918400309185008B
:1002000040913C0150913D0160913E0170913F0150
:10021000072E72E1880F991FAA1FBB1F7A95D1F78D
:10022000702D840F951FA61FB71F220F331F220F9B
:10023000331F820F931FA11DB11D80933C0190932A
:100240003D01A0933E01B0933F01109285001092B2
:1002500084001092400110924101109242011092CC
:100260004301BF91AF919F918F917F916F915F916A
:100270004F913F912F910F900FBE0F901F901895A7
:100280000895089580E090E0089568EE73E00E947C
:10029000A201CB01089508951092450110924401E6
:1002A00010924601109247011092480110924901A4
:1002B00080E190E00E945C0060E070E083E590E007
:1002C0000E94CA0190934D0180934C0152988091F5
:1002D00069008260809369008091690081608093E9
:1002E0006900E89A0E9496007894C6E0D1E0809177
:1002F0003A018130E1F710923A0140913C0150916E
:100300003D0160913E0170913F01809146019091C5
:100310004701A0914801B09149017F936F935F938A
:100320004F93BF93AF939F938F93DF93CF930E948D
:1003300015028DB79EB70A960FB6F8949EBF0FBEF2
:100340008DBFD5CF97FB072E16F4009407D077FD0D
:1003500009D00E94B60107FC05D03EF49095819526
:100360009F4F0895709561957F4F0895AA1BBB1B01
:1003700051E107C0AA1FBB1FA617B70710F0A61BA5
:10038000B70B881F991F5A95A9F780959095BC01C6
:10039000CD0108950F931F93CF93DF93009731F40E
:1003A0006115710519F480E090E03AC08B01EC0111
:1003B0006EE070E081E090E00E940C04FC01892B6B
:1003C00091F380E883830115110571F0138702878B
:1003D00081E8838380914A0190914B01892B21F41C
:1003E000F0934B01E0934A012097C9F0D187C08771
:1003F00083818260838380914C0190914D01892B90
:1004000071F4F0934D01E0934C0180914E01909175
:100410004F01892B21F4F0934F01E0934E01CF015E
:10042000DF91CF911F910F910895A0E0B0E0EBE133
:10043000F2E00C941006AE014B5F5F4FFA01619140
:100440007191AF0180914C0190914D010E942B025E
:10045000E2E00C942C06ABE0B0E0E1E3F2E00C94B7
:1004600000066C017B018A01FC01178216828381E0
:1004700081FFCCC1CE0101963C01F6019381F701C9
:1004800093FD859193FF81917F01882309F4BAC17F
:10049000853239F493FD859193FF81917F018532F7
:1004A00029F4B60190E00E946605E7CF912C212C3B
:1004B000312CFFE1F315D8F08B3279F038F480322B
:1004C00079F08332A1F4232D20611DC08D3261F0BB
:1004D000803369F4232D216016C0832D8260382E6D
:1004E000E32DE4603E2E2AC0F32DF8601DC037FCDA
:1004F0002DC020ED280F2A3040F08E32B9F436FCA2
:1005000081C1232D2064322E19C036FE06C08AE038
:10051000989E200D1124922E11C0EAE02E9E200DEF
:100520001124222EF32DF0623F2E08C08C3621F4C8
:10053000832D8068382E02C0883641F4F70193FD80
:10054000859193FF81917F018111B3CF982F9F7D7A
:100550009554933028F40C5F1F4F9FE399830DC08F
:10056000833631F0833771F0833509F059C021C0EB
:10057000F801808189830E5F1F4F88248394912C1A
:10058000530113C02801F2E04F0E511CF801A08066
:10059000B18036FE03C0692D70E002C06FEF7FEFBF
:1005A000C5010E945B054C018201F32DFF773F2EB0
:1005B00016C0280122E0420E511CF801A080B18033
:1005C00036FE03C0692D70E002C06FEF7FEFC501FA
:1005D0000E9449054C01F32DF0683F2E820133FC47
:1005E0001BC0822D90E088169906B0F4B60180E217
:1005F00090E00E9466052A94F4CFF50137FC8591BE
:1006000037FE81915F01B60190E00E9466052110DE
:100610002A9421E0821A91088114910471F7E8C0AC
:10062000843611F0893641F5F80137FE07C0608144
:100630007181828193810C5F1F4F08C0608171813D
:10064000072E000C880B990B0E5F1F4FF32DFF76C2
:100650003F2E97FF09C090958095709561957F4FCB
:100660008F4F9F4FF0683F2E2AE030E0A3010E9499
:10067000A205882E861845C0853731F4232D2F7E9C
:10068000B22E2AE030E025C0932D997FB92E8F3607
:10069000C1F018F4883579F0B5C0803719F0883783
:1006A00021F0B0C0E92FE061BE2EB4FE0DC0FB2DDD
:1006B000F460BF2E09C034FE0AC0292F2660B22E76
:1006C00006C028E030E005C020E130E002C020E1B3
:1006D00032E0F801B7FE07C06081718182819381A9
:1006E0000C5F1F4F06C06081718180E090E00E5F5B
:1006F0001F4FA3010E94A205882E8618FB2DFF77AD
:100700003F2E36FE0DC0232D2E7FA22E891458F4C5
:1007100034FE0BC032FC09C0832D8E7EA82E05C08E
:10072000B82CA32C03C0B82C01C0B92CA4FE0FC058
:10073000FE01E80DF11D8081803321F49A2D997E10
:10074000A92E09C0A2FE06C0B394B39404C08A2D9A
:10075000867809F0B394A3FC11C0A0FE06C0B214C1
:1007600088F4280C922C9B180EC0B21460F4B601C9
:1007700080E290E00E946605B394F7CFB21418F4BB
:100780002B1802C0982C212CA4FE10C0B60180E3C7
:1007900090E00E946605A2FE17C0A1FC03C088E796
:1007A00090E002C088E590E0B6010CC08A2D867802
:1007B00059F0A1FE02C08BE201C080E2A7FC8DE2ED
:1007C000B60190E00E946605891438F4B60180E312
:1007D00090E00E9466059A94F7CF8A94F301E80DA1
:1007E000F11D8081B60190E00E9466058110F5CF71
:1007F000222009F442CEB60180E290E00E94660514
:100800002A94F6CFF6018681978102C08FEF9FEF81
:100810002B96E2E10C941C060F931F93CF93DF936A
:10082000869F8001879F100D969F100D1124C8018F
:100830000E942804EC01009729F0A80160E070E014
:100840000E945405CE01DF91CF911F910F91089521
:100850000F931F93CF93DF938230910510F482E0C2
:1008600090E0E0915201F091530120E030E0A0E0EF
:10087000B0E0309719F1408151810281138148170E
:100880005907C8F08417950769F4109731F012964C
:100890000C93129713961C9327C000935201109348
:1008A000530122C02115310519F04217530718F4DE
:1008B0009A01BD01EF01DF01F801DBCF2115310500
:1008C000F9F0281B390B2430310580F48A819B8193
:1008D0006115710521F0FB019383828304C090931D
:1008E000530180935201FE01329644C0FE01E20F93
:1008F000F31F8193919322503109398328833AC0A1
:100900002091500130915101232B41F4209102019B
:100910003091030130935101209350012091000147
:10092000309101012115310541F42DB73EB74091B9
:10093000040150910501241B350BE0915001F09109
:100940005101E217F307A0F42E1B3F0B28173907BC
:1009500078F0AC014E5F5F4F2417350748F04E0F1B
:100960005F1F50935101409350018193919302C0B6
:10097000E0E0F0E0CF01DF91CF911F910F9108955A
:10098000CF93DF93009709F481C0FC013297138263
:100990001282A0915201B0915301109781F42081ED
:1009A0003181820F931F20915001309151012817FE
:1009B000390751F5F0935101E093500167C0ED0103
:1009C00020E030E0CE17DF0740F44A815B819E01D2
:1009D00041155105F1F0EA01F5CFD383C28340817F
:1009E0005181840F951FC817D90759F488819981BF
:1009F000840F951F0296918380838A819B819383C4
:100A000082832115310529F4F0935301E0935201BB
:100A10003DC0E901FB83EA8349915991C40FD51F79
:100A2000EC17FD0761F480819181840F951F029678
:100A3000E90199838883828193819B838A83E0E0A3
:100A4000F0E012968D919C911397009719F0FD019B
:100A5000DC01F7CF8D919C9111979D012E5F3F4F47
:100A6000820F931F209150013091510128173907AF
:100A700069F4309729F4109253011092520102C088
:100A800013821282B0935101A0935001DF91CF9154
:100A90000895FC010590615070400110D8F78095D1
:100AA00090958E0F9F1F0895DC0101C06D934150FA
:100AB0005040E0F70895FC01615070400190011032
:100AC000D8F7809590958E0F9F1F08950F931F93D1
:100AD000CF93DF93FB01238121FD03C08FEF9FEFB5
:100AE0002CC022FF16C046815781248135814217D0
:100AF000530744F4A081B1819D012F5F3F4F3183A3
:100B000020838C93268137812F5F3F4F3783268345
:100B100014C08B01EC01FB010084F185E02D0995E7
:100B2000892BE1F6D80116968D919C911797019625
:100B300017969C938E931697CE01DF91CF911F91BC
:100B40000F910895FA01AA27283051F1203181F13F
:100B5000E8946F936E7F6E5F7F4F8F4F9F4FAF4FC5
:100B6000B1E03ED0B4E03CD0670F781F891F9A1FD8
:100B7000A11D680F791F8A1F911DA11D6A0F711D8C
:100B8000811D911DA11D20D009F468943F912AE098
:100B9000269F11243019305D3193DEF6CF01089580
:100BA000462F4770405D4193B3E00FD0C9F7F6CFB1
:100BB000462F4F70405D4A3318F0495D31FD405279
:100BC000419302D0A9F7EACFB4E0A695979587950F
:100BD00077956795BA95C9F70097610571050895EE
:100BE0009B01AC010A2E069457954795379527959A
:100BF000BA95C9F7620F731F841F951FA01D089532
:100C00002F923F924F925F926F927F928F929F921C
:100C1000AF92BF92CF92DF92EF92FF920F931F930A
:100C2000CF93DF93CDB7DEB7CA1BDB0B0FB6F894BB
:100C3000DEBF0FBECDBF09942A88398848885F84FB
:100C40006E847D848C849B84AA84B984C884DF806C
:100C5000EE80FD800C811B81AA81B981CE0FD11D50
:100C60000FB6F894DEBF0FBECDBFED010895F89426
:020C7000FFCFB4
:100C72000000540120004E756D626572206F66207F
:100C82007265766F6C7574696F6E20697320256C5E
:100C9200642074696D652074616B656E20256C64D7
:080CA200207553200D0A00002B
:00000001FF
