:100000000C9434000C9451000C9451000C946F002B
:100010000C9451000C9451000C9451000C9451001C
:100020000C9451000C9451000C9451000C9451000C
:100030000C9451000C9451000C9451000C945100FC
:100040000C9451000C9451000C9451000C945100EC
:100050000C9451000C9451000C9451000C945100DC
:100060000C9451000C94510011241FBECFEFD8E026
:10007000DEBFCDBF11E0A0E0B1E0EEE9FDE002C0DF
:1000800005900D92AE36B107D9F721E0AEE6B1E0AA
:1000900001C01D92AF37B207E1F70E94C7000C9470
:1000A000CD060C9400009091C00095FFFCCF80938A
:1000B000C60008958091C00087FFFCCF8091C600E4
:1000C00090E0089526E02093C2001092C000909323
:1000D000C5008093C40088E18093C10008951F92F9
:1000E0000F920FB60F9211248F939F9380917101FD
:1000F00090917201449754F4809171019091720132
:100100000196909372018093710110C080916F01EC
:100110009091700101969093700180936F011092FD
:1001200072011092710181E080936E019F918F9115
:100130000F900FBE0F901F90189522982A9AE8E60C
:10014000F0E0808181608083D89AEBE6F0E08081E6
:1001500081608083089580E480937C0087E88093A9
:100160007A00089590917C00987F8770892B809306
:100170007C0080917A00806480937A0080917A007C
:1001800086FDFCCF80917800909179000895CF93FF
:10019000DF93CDB7DEB7C250D2400FB6F894DEBFC2
:1001A0000FBECDBF0E94AB0087E690E00E946200C8
:1001B00060E070E083E590E00E9460029093780137
:1001C000809377016AE570E080E090E00E94600231
:1001D00090937601809375010E949D0078948FE33F
:1001E00084B92D9A2E9826E4422E21E0522E80E4E6
:1001F0000E94B20090937401809373012FEF81EEFF
:1002000094E0215080409040E1F700C0000096E06B
:10021000A92E91E0B92EFE0131967F016E01F1E029
:10022000CF0EDF1E00E010E037014601CF5FDD4F4B
:10023000B982A882C150D240F501808185B9302EA3
:10024000011115C0F601108211821282138220E082
:1002500030E044EB50E4F701608171818281938149
:100260000E94A301F70160837183828393838FEFE0
:10027000830D8F33D8F4F701349780819181A28167
:10028000B381F60180839183A283B38320E030E0C1
:1002900044EB50E4F70160817181828193810E9477
:1002A000A301F7016083718382839383FFEFAF1A09
:1002B000BF0ACF5FDD4FE881F981C150D240808114
:1002C00090E020917301309174018217930769F5D2
:1002D000000F111F000F111FF301E00FF11F8381A9
:1002E0008F9382818F9381818F9380818F93F4018B
:1002F000E00FF11F83818F9382818F9381818F9390
:1003000080818F935F924F920E94AB02FFEF21EEAC
:1003100084E0F15020408040E1F700C000000FB6BB
:10032000F894DEBF0FBECDBF62CF0F5F1F4FF4E06A
:10033000EF0EF11C24E0C20ED11C0034110509F0AF
:1003400075CF55CF5058BB27AA270E94BA010C94ED
:1003500026020E94180238F00E941F0220F039F491
:100360009F3F19F426F40C9415020EF4E095E7FB78
:100370000C940F02E92F0E94370258F3BA17620754
:1003800073078407950720F079F4A6F50C945902B9
:100390000EF4E0950B2EBA2FA02D0B01B9019001A0
:1003A0000C01CA01A0011124FF27591B99F0593FE4
:1003B00050F4503E68F11A16F040A22F232F342F2C
:1003C0004427585FF3CF469537952795A795F0407A
:1003D0005395C9F77EF41F16BA0B620B730B840B8F
:1003E000BAF09150A1F0FF0FBB1F661F771F881F47
:1003F000C2F70EC0BA0F621F731F841F48F487959F
:1004000077956795B795F7959E3F08F0B0CF939590
:10041000880F08F09927EE0F97958795089597F91B
:100420009F6780E870E060E008959FEF80EC08959A
:1004300000240A94161617061806090608950024C3
:100440000A9412161306140605060895092E03943D
:10045000000C11F4882352F0BB0F40F4BF2B11F4B1
:1004600060FF04C06F5F7F4F8F4F9F4F089557FD10
:100470009058440F551F59F05F3F71F04795880F12
:1004800097FB991F61F09F3F79F0879508951216A9
:1004900013061406551FF2CF4695F1DF08C0161655
:1004A00017061806991FF1CF869571056105089406
:1004B0000895E894BB2766277727CB0197F908951D
:1004C0000F931F93CF93DF93009731F4611571055C
:1004D00019F480E090E03AC08B01EC016EE070E02E
:1004E00081E090E00E94A204FC01892B91F380E856
:1004F00083830115110571F01387028781E88383D7
:100500008091750190917601892B21F4F093760109
:10051000E09375012097C9F0D187C08783818260FD
:1005200083838091770190917801892B71F4F09306
:100530007801E09377018091790190917A01892B7C
:1005400021F4F0937A01E0937901CF01DF91CF910B
:100550001F910F910895A0E0B0E0E1EBF2E00C9460
:10056000A606AE014B5F5F4FFA0161917191AF0139
:1005700080917701909178010E94C102E2E00C9491
:10058000C206ABE0B0E0E7ECF2E00C9496066C013A
:100590007B018A01FC0117821682838181FFCCC115
:1005A000CE0101963C01F6019381F70193FD8591FF
:1005B00093FF81917F01882309F4BAC1853239F410
:1005C00093FD859193FF81917F01853229F4B601D6
:1005D00090E00E94FC05E7CF912C212C312CFFE10B
:1005E000F315D8F08B3279F038F4803279F0833219
:1005F000A1F4232D20611DC08D3261F0803369F498
:10060000232D216016C0832D8260382EE32DE460F7
:100610003E2E2AC0F32DF8601DC037FC2DC020ED02
:10062000280F2A3040F08E32B9F436FC81C1232DD8
:100630002064322E19C036FE06C08AE0989E200D36
:100640001124922E11C0EAE02E9E200D1124222E9C
:10065000F32DF0623F2E08C08C3621F4832D806884
:10066000382E02C0883641F4F70193FD859193FF3F
:1006700081917F018111B3CF982F9F7D9554933045
:1006800028F40C5F1F4F9FE399830DC0833631F030
:10069000833771F0833509F059C021C0F80180819A
:1006A00089830E5F1F4F88248394912C530113C0BC
:1006B0002801F2E04F0E511CF801A080B18036FEF7
:1006C00003C0692D70E002C06FEF7FEFC5010E948B
:1006D000F1054C018201F32DFF773F2E16C0280152
:1006E00022E0420E511CF801A080B18036FE03C00A
:1006F000692D70E002C06FEF7FEFC5010E94DF053A
:100700004C01F32DF0683F2E820133FC1BC0822D7B
:1007100090E088169906B0F4B60180E290E00E945D
:10072000FC052A94F4CFF50137FC859137FE8191C1
:100730005F01B60190E00E94FC0521102A9421E09F
:10074000821A91088114910471F7E8C0843611F07F
:10075000893641F5F80137FE07C0608171818281D9
:1007600093810C5F1F4F08C060817181072E000CC0
:10077000880B990B0E5F1F4FF32DFF763F2E97FFCF
:1007800009C090958095709561957F4F8F4F9F4FD1
:10079000F0683F2E2AE030E0A3010E943806882E40
:1007A000861845C0853731F4232D2F7EB22E2AE0DE
:1007B00030E025C0932D997FB92E8F36C1F018F403
:1007C000883579F0B5C0803719F0883721F0B0C08E
:1007D000E92FE061BE2EB4FE0DC0FB2DF460BF2EEC
:1007E00009C034FE0AC0292F2660B22E06C028E0B8
:1007F00030E005C020E130E002C020E132E0F80145
:10080000B7FE07C060817181828193810C5F1F4FA9
:1008100006C06081718180E090E00E5F1F4FA301F0
:100820000E943806882E8618FB2DFF773F2E36FE55
:100830000DC0232D2E7FA22E891458F434FE0BC038
:1008400032FC09C0832D8E7EA82E05C0B82CA32CA7
:1008500003C0B82C01C0B92CA4FE0FC0FE01E80DE6
:10086000F11D8081803321F49A2D997EA92E09C033
:10087000A2FE06C0B394B39404C08A2D867809F012
:10088000B394A3FC11C0A0FE06C0B21488F4280CD7
:10089000922C9B180EC0B21460F4B60180E290E076
:1008A0000E94FC05B394F7CFB21418F42B1802C0C1
:1008B000982C212CA4FE10C0B60180E390E00E9489
:1008C000FC05A2FE17C0A1FC03C088E790E002C0AF
:1008D00088E590E0B6010CC08A2D867859F0A1FE1B
:1008E00002C08BE201C080E2A7FC8DE2B60190E07D
:1008F0000E94FC05891438F4B60180E390E00E9460
:10090000FC059A94F7CF8A94F301E80DF11D8081DC
:10091000B60190E00E94FC058110F5CF222009F479
:1009200042CEB60180E290E00E94FC052A94F6CF08
:10093000F6018681978102C08FEF9FEF2B96E2E14F
:100940000C94B2060F931F93CF93DF93869F800181
:10095000879F100D969F100D1124C8010E94BE04A0
:10096000EC01009729F0A80160E070E00E94EA0520
:10097000CE01DF91CF911F910F9108950F931F9397
:10098000CF93DF938230910510F482E090E0E09104
:100990007D01F0917E0120E030E0A0E0B0E03097F2
:1009A00019F1408151810281138148175907C8F01C
:1009B0008417950769F4109731F012960C931297EB
:1009C00013961C9327C000937D0110937E0122C0D3
:1009D0002115310519F04217530718F49A01BD018A
:1009E000EF01DF01F801DBCF21153105F9F0281BFC
:1009F000390B2430310580F48A819B8161157105A2
:100A000021F0FB019383828304C090937E01809345
:100A10007D01FE01329644C0FE01E20FF31F819377
:100A2000919322503109398328833AC020917B0168
:100A300030917C01232B41F420910201309103017C
:100A400030937C0120937B012091000130910101C2
:100A50002115310541F42DB73EB740910401509165
:100A60000501241B350BE0917B01F0917C01E2171D
:100A7000F307A0F42E1B3F0B2817390778F0AC01C1
:100A80004E5F5F4F2417350748F04E0F5F1F50939E
:100A90007C0140937B018193919302C0E0E0F0E000
:100AA000CF01DF91CF911F910F910895CF93DF93E5
:100AB000009709F481C0FC01329713821282A09141
:100AC0007D01B0917E01109781F420813181820FE8
:100AD000931F20917B0130917C012817390751F534
:100AE000F0937C01E0937B0167C0ED0120E030E0F2
:100AF000CE17DF0740F44A815B819E014115510505
:100B0000F1F0EA01F5CFD383C28340815181840F94
:100B1000951FC817D90759F488819981840F951FAB
:100B20000296918380838A819B819383828321159E
:100B3000310529F4F0937E01E0937D013DC0E90188
:100B4000FB83EA8349915991C40FD51FEC17FD0728
:100B500061F480819181840F951F0296E901998348
:100B60008883828193819B838A83E0E0F0E0129600
:100B70008D919C911397009719F0FD01DC01F7CF3F
:100B80008D919C9111979D012E5F3F4F820F931F76
:100B900020917B0130917C012817390769F4309747
:100BA00029F410927E0110927D0102C013821282FC
:100BB000B0937C01A0937B01DF91CF910895FC015C
:100BC0000590615070400110D8F7809590958E0F78
:100BD0009F1F0895DC0101C06D9341505040E0F724
:100BE0000895FC016150704001900110D8F7809584
:100BF00090958E0F9F1F08950F931F93CF93DF93B0
:100C0000FB01238121FD03C08FEF9FEF2CC022FF4A
:100C100016C046815781248135814217530744F419
:100C2000A081B1819D012F5F3F4F318320838C9341
:100C3000268137812F5F3F4F3783268314C08B0176
:100C4000EC01FB010084F185E02D0995892BE1F68B
:100C5000D80116968D919C911797019617969C93A3
:100C60008E931697CE01DF91CF911F910F9108952A
:100C7000FA01AA27283051F1203181F1E8946F93CD
:100C80006E7F6E5F7F4F8F4F9F4FAF4FB1E03ED073
:100C9000B4E03CD0670F781F891F9A1FA11D680F11
:100CA000791F8A1F911DA11D6A0F711D811D911D44
:100CB000A11D20D009F468943F912AE0269F1124B9
:100CC0003019305D3193DEF6CF010895462F47701D
:100CD000405D4193B3E00FD0C9F7F6CF462F4F7078
:100CE000405D4A3318F0495D31FD4052419302D0D6
:100CF000A9F7EACFB4E0A69597958795779567957C
:100D0000BA95C9F700976105710508959B01AC017B
:100D10000A2E06945795479537952795BA95C9F7A2
:100D2000620F731F841F951FA01D08952F923F927D
:100D30004F925F926F927F928F929F92AF92BF92EB
:100D4000CF92DF92EF92FF920F931F93CF93DF9397
:100D5000CDB7DEB7CA1BDB0B0FB6F894DEBF0FBEF4
:100D6000CDBF09942A88398848885F846E847D8441
:100D70008C849B84AA84B984C884DF80EE80FD8043
:100D80000C811B81AA81B981CE0FD11D0FB6F894B9
:0E0D9000DEBF0FBECDBFED010895F894FFCF7A
:100D9E0000007F01200000010302060705040C0D70
:100DAE000F0E0A0B090818191B1A1E1F1D1C1415ED
:100DBE0017161213111030313332363735343C3D9D
:100DCE003F3E3A3B393828292B2A2E2F2D2C24250D
:100DDE0027262223212052616E6765206973202504
:100DEE002E336C662064656772656520746F2025EE
:0E0DFE002E336C66206465677265652E0000FA
:00000001FF
