:100000000C9434000C949F000C9451000C945100FB
:100010000C9451000C9451000C9451000C9451001C
:100020000C9451000C9451000C9451000C9451000C
:100030000C9451000C9471000C9451000C945100DC
:100040000C9451000C9451000C9451000C945100EC
:100050000C9451000C9451000C9451000C945100DC
:100060000C9451000C94510011241FBECFEFD8E026
:10007000DEBFCDBF11E0A0E0B1E0E8E9FCE002C0E6
:1000800005900D92A634B107D9F721E0A6E4B1E0BE
:1000900001C01D92A236B207E1F70E9468010C94DC
:1000A0004A060C9400009091C00095FFFCCF80930D
:1000B000C60080E090E0089526E02093C2001092F0
:1000C000C0009093C5008093C40088E08093C10075
:1000D00008958091C00087FFFCCF8091C60090E01A
:1000E00008951F920F920FB60F9211248F939F9332
:1000F000AF93BF9380914C0190914D01A0914E011F
:10010000B0914F010196A11DB11D80934C019093B8
:100110004D01A0934E01B0934F01BF91AF919F91BC
:100120008F910F900FBE0F901F9018951092800026
:1001300083E08093810081E080936F0008951F9297
:100140000F920FB60F9211242F933F934F935F930B
:100150006F937F938F939F93AF93BF93809147014A
:1001600081110FC0109285001092840010924C01F2
:1001700010924D0110924E0110924F0181E0809338
:1001800047018091500190915101449754F480911E
:10019000500190915101019690935101809350012B
:1001A00057C08091540190915501A0915601B09192
:1001B00057010196A11DB11D8093540190935501E3
:1001C000A0935601B093570181E0809346011092AD
:1001D00051011092500180914C0190914D01A091DC
:1001E0004E01B0914F0120918400309185004091E3
:1001F00048015091490160914A0170914B01072ECD
:1002000072E1880F991FAA1FBB1F7A95D1F7702D35
:10021000840F951FA61FB71F220F331F220F331FF6
:10022000820F931FA11DB11D809348019093490136
:10023000A0934A01B0934B01109285001092840064
:1002400010924C0110924D0110924E0110924F01EC
:10025000BF91AF919F918F917F916F915F914F91DE
:100260003F912F910F900FBE0F901F90189580E433
:1002700080937C0087EA80937A0086E080937B00FD
:100280008EE380937E00089590917C00987F877024
:10029000892B80937C0080917A00806480937A001F
:1002A00080917A0086FDFCCF809178009091790052
:1002B0000895ECE7F0E09081907F908390818F70BB
:1002C000982B9083EAE7F0E0808180648083089532
:1002D0001092510110925001109254011092550148
:1002E000109256011092570180E190E00E945C004C
:1002F00060E070E083E590E00E94DD0190935B0197
:1003000080935A01529880916900826080936900BD
:1003100080916900816080936900E89A0E9496004C
:10032000789406E011E0C5E1D1E080E40E94440148
:10033000809352019093530120917C009F938F935F
:10034000822F81701F928F931F930F930E94280218
:10035000809152010E945901809146010F900F90A7
:100360000F900F900F900F908130F9F61092460188
:10037000409148015091490160914A0170914B01AF
:100380008091540190915501A0915601B09157016F
:100390007F936F935F934F93BF93AF939F938F938D
:1003A000DF93CF930E9428028DB79EB70A960FB6AF
:1003B000F8949EBF0FBE8DBFB8CF0F931F93CF93FE
:1003C000DF93009731F46115710519F480E090E036
:1003D0003AC08B01EC016EE070E081E090E00E9499
:1003E0001F04FC01892B91F380E88383011511051B
:1003F00071F01387028781E883838091580190917F
:100400005901892B21F4F0935901E0935801209769
:10041000C9F0D187C08783818260838380915A012C
:1004200090915B01892B71F4F0935B01E0935A0189
:1004300080915C0190915D01892B21F4F0935D0125
:10044000E0935C01CF01DF91CF911F910F9108954F
:10045000A0E0B0E0EEE2F2E00C942306AE014B5FC8
:100460005F4FFA0161917191AF0180915A019091B2
:100470005B010E943E02E2E00C943F06ABE0B0E07C
:10048000E4E4F2E00C9413066C017B018A01FC01A8
:1004900017821682838181FFCCC1CE0101963C0177
:1004A000F6019381F70193FD859193FF81917F017F
:1004B000882309F4BAC1853239F493FD859193FFFD
:1004C00081917F01853229F4B60190E00E9479057F
:1004D000E7CF912C212C312CFFE1F315D8F08B3292
:1004E00079F038F4803279F08332A1F4232D206141
:1004F0001DC08D3261F0803369F4232D216016C058
:10050000832D8260382EE32DE4603E2E2AC0F32D29
:10051000F8601DC037FC2DC020ED280F2A3040F0B8
:100520008E32B9F436FC81C1232D2064322E19C0DD
:1005300036FE06C08AE0989E200D1124922E11C02E
:10054000EAE02E9E200D1124222EF32DF0623F2E84
:1005500008C08C3621F4832D8068382E02C088367E
:1005600041F4F70193FD859193FF81917F01811102
:10057000B3CF982F9F7D9554933028F40C5F1F4F75
:100580009FE399830DC0833631F0833771F0833553
:1005900009F059C021C0F801808189830E5F1F4F87
:1005A00088248394912C530113C02801F2E04F0E4C
:1005B000511CF801A080B18036FE03C0692D70E0A7
:1005C00002C06FEF7FEFC5010E946E054C018201F2
:1005D000F32DFF773F2E16C0280122E0420E511C5A
:1005E000F801A080B18036FE03C0692D70E002C022
:1005F0006FEF7FEFC5010E945C054C01F32DF068A1
:100600003F2E820133FC1BC0822D90E08816990694
:10061000B0F4B60180E290E00E9479052A94F4CF0C
:10062000F50137FC859137FE81915F01B60190E0BD
:100630000E94790521102A9421E0821A91088114E0
:10064000910471F7E8C0843611F0893641F5F8015C
:1006500037FE07C060817181828193810C5F1F4FDB
:1006600008C060817181072E000C880B990B0E5F0A
:100670001F4FF32DFF763F2E97FF09C09095809571
:10068000709561957F4F8F4F9F4FF0683F2E2AE006
:1006900030E0A3010E94B505882E861845C0853735
:1006A00031F4232D2F7EB22E2AE030E025C0932D89
:1006B000997FB92E8F36C1F018F4883579F0B5C01E
:1006C000803719F0883721F0B0C0E92FE061BE2EE5
:1006D000B4FE0DC0FB2DF460BF2E09C034FE0AC06D
:1006E000292F2660B22E06C028E030E005C020E1A8
:1006F00030E002C020E132E0F801B7FE07C06081BF
:100700007181828193810C5F1F4F06C0608171816E
:1007100080E090E00E5F1F4FA3010E94B505882E78
:100720008618FB2DFF773F2E36FE0DC0232D2E7F22
:10073000A22E891458F434FE0BC032FC09C0832D5C
:100740008E7EA82E05C0B82CA32C03C0B82C01C0E7
:10075000B92CA4FE0FC0FE01E80DF11D808180338D
:1007600021F49A2D997EA92E09C0A2FE06C0B39449
:10077000B39404C08A2D867809F0B394A3FC11C009
:10078000A0FE06C0B21488F4280C922C9B180EC050
:10079000B21460F4B60180E290E00E947905B3944F
:1007A000F7CFB21418F42B1802C0982C212CA4FEF9
:1007B00010C0B60180E390E00E947905A2FE17C048
:1007C000A1FC03C088E790E002C088E590E0B60194
:1007D0000CC08A2D867859F0A1FE02C08BE201C0C0
:1007E00080E2A7FC8DE2B60190E00E9479058914B1
:1007F00038F4B60180E390E00E9479059A94F7CF2F
:100800008A94F301E80DF11D8081B60190E00E9409
:1008100079058110F5CF222009F442CEB60180E29D
:1008200090E00E9479052A94F6CFF601868197819F
:1008300002C08FEF9FEF2B96E2E10C942F060F93EF
:100840001F93CF93DF93869F8001879F100D969F04
:10085000100D1124C8010E943B04EC01009729F0FF
:10086000A80160E070E00E946705CE01DF91CF91A2
:100870001F910F9108950F931F93CF93DF938230B1
:10088000910510F482E090E0E0916001F091610147
:1008900020E030E0A0E0B0E0309719F140815181D4
:1008A0000281138148175907C8F08417950769F426
:1008B000109731F012960C93129713961C9327C041
:1008C000009360011093610122C02115310519F0D8
:1008D0004217530718F49A01BD01EF01DF01F80137
:1008E000DBCF21153105F9F0281B390B24303105F8
:1008F00080F48A819B816115710521F0FB0193834E
:10090000828304C09093610180936001FE0132965E
:1009100044C0FE01E20FF31F8193919322503109ED
:10092000398328833AC020915E0130915F01232BE7
:1009300041F4209102013091030130935F01209333
:100940005E0120910001309101012115310541F432
:100950002DB73EB74091040150910501241B350B82
:10096000E0915E01F0915F01E217F307A0F42E1B06
:100970003F0B2817390778F0AC014E5F5F4F241703
:10098000350748F04E0F5F1F50935F0140935E01A3
:100990008193919302C0E0E0F0E0CF01DF91CF912D
:1009A0001F910F910895CF93DF93009709F481C0B1
:1009B000FC01329713821282A0916001B091610113
:1009C000109781F420813181820F931F20915E0165
:1009D00030915F012817390751F5F0935F01E093DB
:1009E0005E0167C0ED0120E030E0CE17DF0740F484
:1009F0004A815B819E0141155105F1F0EA01F5CF75
:100A0000D383C28340815181840F951FC817D907B2
:100A100059F488819981840F951F02969183808370
:100A20008A819B81938382832115310529F4F09378
:100A30006101E09360013DC0E901FB83EA834991D4
:100A40005991C40FD51FEC17FD0761F48081918186
:100A5000840F951F0296E90199838883828193818F
:100A60009B838A83E0E0F0E012968D919C9113972E
:100A7000009719F0FD01DC01F7CF8D919C91119742
:100A80009D012E5F3F4F820F931F20915E01309199
:100A90005F012817390769F4309729F41092610132
:100AA0001092600102C013821282B0935F01A09382
:100AB0005E01DF91CF910895FC0105906150704077
:100AC0000110D8F7809590958E0F9F1F0895DC0137
:100AD00001C06D9341505040E0F70895FC01615012
:100AE000704001900110D8F7809590958E0F9F1F50
:100AF00008950F931F93CF93DF93FB01238121FD73
:100B000003C08FEF9FEF2CC022FF16C04681578194
:100B1000248135814217530744F4A081B1819D019E
:100B20002F5F3F4F318320838C93268137812F5F46
:100B30003F4F3783268314C08B01EC01FB010084F7
:100B4000F185E02D0995892BE1F6D80116968D9156
:100B50009C911797019617969C938E931697CE01AA
:100B6000DF91CF911F910F910895FA01AA272830A4
:100B700051F1203181F1E8946F936E7F6E5F7F4F6A
:100B80008F4F9F4FAF4FB1E03ED0B4E03CD0670FE6
:100B9000781F891F9A1FA11D680F791F8A1F911D39
:100BA000A11D6A0F711D811D911DA11D20D009F489
:100BB00068943F912AE0269F11243019305D3193CB
:100BC000DEF6CF010895462F4770405D4193B3E0B4
:100BD0000FD0C9F7F6CF462F4F70405D4A3318F05B
:100BE000495D31FD4052419302D0A9F7EACFB4E00C
:100BF000A6959795879577956795BA95C9F70097C4
:100C00006105710508959B01AC010A2E0694579564
:100C1000479537952795BA95C9F7620F731F841FBB
:100C2000951FA01D08952F923F924F925F926F9251
:100C30007F928F929F92AF92BF92CF92DF92EF926C
:100C4000FF920F931F93CF93DF93CDB7DEB7CA1BED
:100C5000DB0B0FB6F894DEBF0FBECDBF09942A8818
:100C6000398848885F846E847D848C849B84AA84C0
:100C7000B984C884DF80EE80FD800C811B81AA814D
:100C8000B981CE0FD11D0FB6F894DEBF0FBECDBF18
:080C9000ED010895F894FFCF77
:100C98000000620120007B22616463302564223AEF
:100CA80025647D0A004E756D626572206F6620723C
:100CB80065766F6C7574696F6E20697320256C6436
:100CC8002074696D652074616B656E20256C6420E5
:060CD8007553200D0A0017
:00000001FF
