:100000000C943A000C9457000C9457000C94570031
:100010000C9457000C9457000C9457000C94570004
:100020000C9457000C9457000C9457000C945700F4
:100030000C9457000C9457000C9457000C945700E4
:100040000C9457000C9457000C9457000C945700D4
:100050000C9457000C9457000C9457000C945700C4
:100060000C9457000C9457006364696E6F7073753D
:1000700078585B0011241FBECFEFD8E0DEBFCDBFA4
:1000800012E0A0E0B1E0E6EFF4E102C005900D92CD
:10009000AC3CB107D9F722E0ACECB2E001C01D9254
:1000A000A83DB207E1F70E9442010C94790A0C9432
:1000B00000009091C00095FFFCCF8093C60008958A
:1000C0008091C00087FFFCCF8091C60090E008952A
:1000D00026E02093C2001092C0009093C500809348
:1000E000C40088E18093C100089580E480937C007F
:1000F00087E880937A00089590917C00987F8770BC
:10010000892B80937C0080917A00806480937A00B0
:1001100080917A0086FDFCCF8091780090917900E3
:100120000895CF93C82F8EEF8C0F8630D8F48AB104
:1001300090E00C2E02C0959587950A94E2F780FF17
:1001400005C01F92CF9386E091E004C01F92CF9329
:1001500081E291E09F938F930E94F6020F900F909F
:100160000F900F9088EF8C0F8630E0F484B190E010
:1001700028EF2C0F02C0959587952A95E2F780FF0E
:1001800005C01F92CF9386E091E004C01F92CF93E9
:1001900081E291E09F938F930E94F6020F900F905F
:1001A0000F900F90CF9108950F931F93CF93DF93EC
:1001B000C82FD62F082F10E01F926F931F928F9396
:1001C0008BE391E09F938F930E94F6028EEF8C0F4A
:1001D0000F900F900F900F900F900F908630D8F4E3
:1001E000D13059F42AB181E090E00C2E01C0880F83
:1001F0000A94EAF7822B8AB91FC0D1110CC02AB128
:1002000081E090E00C2E01C0880F0A94EAF78095F7
:1002100082238AB924C088EF8C0F863060F5D130F4
:1002200081F424B10850110981E090E001C0880FE9
:100230000A95EAF7822B84B91F92CF9386E091E06A
:1002400012C0D11118C024B10850110981E090E00A
:1002500001C0880F0A95EAF78095822384B91F921E
:10026000CF9381E291E09F938F930E94F6020F90CB
:100270000F900F900F90DF91CF911F910F910895E4
:100280000C94D400CF93DF9300D000D01F92CDB751
:10029000DEB70E94750087E690E00E94680060E08B
:1002A00070E089E590E00E94AB029093D1028093C8
:1002B000D00260E670E080E090E00E94AB02909394
:1002C000CF028093CE028FEF8AB984B987B91BB869
:1002D00015B818B82E0124E0420E511C80E3E82E18
:1002E00082E0F82E9EE4292E92E0392E6E0182E003
:1002F000C80ED11C8E010D5F1F4F2DE2A22E22E0F1
:10030000B22E33E3632E32E0732ECE0101964C0100
:100310008FE491E00E940C0383EA91E00E940C03B9
:1003200085EC91E00E940C0381ED91E00E940C03AA
:1003300081EE91E00E940C0382EF91E00E940C0399
:1003400081E092E09F938F930E94F6025F924F921A
:1003500080E392E09F938F930E943C0389E391E0B6
:100360000E940C030F900F900F900F900F900F9022
:100370008C81823371F038F4813351F68EE192E052
:100380009F938F9325C0833309F1843309F445C0CB
:10039000BFCF8BE392E09F938F930E94F602DF9290
:1003A000CF921F930F93BF92AF920E943C030FB660
:1003B000F894DEBF0FBECDBF9B818A81903311F4CC
:1003C000805301C086520E949100A2CF3F922F928B
:1003D0000E94F602DF92CF921F930F93BF92AF92CB
:1003E0000E943C037F926F920E94F6029F928F922E
:1003F000FF92EF920E943C030FB6F894DEBF0FBE4F
:10040000CDBF9B818A81903311F4805301C0865205
:10041000698160530E94D4007BCF82E692E09F9373
:100420008F930E94F6021F930F93FF92EF920E9408
:100430003C038B8180538D831F928F9384E792E0DE
:100440009F938F930E94F6020FB6F894DEBF0FBE03
:10045000CDBF9D8191110CC080E40E947C008093EF
:10046000CC029093CD029F938F938EE792E02CC0A5
:100470002D81213061F481E40E947C008093CC02C4
:100480009093CD029F938F938BE892E037C08D813C
:10049000823061F482E40E947C008093CC029093CD
:1004A000CD029F938F9388E992E043C09D81933062
:1004B000B9F483E40E947C008093CC029093CD0237
:1004C0009F938F9385EA92E09F938F930E94F60209
:1004D0002FEF81EE94E0215080409040E1F734C04E
:1004E0002D812430B9F484E40E947C008093CC02F6
:1004F0009093CD029F938F9382EB92E09F938F9383
:100500000E94F6028FEF91EE24E08150904020404F
:10051000E1F71AC08D81853009F0FACE85E40E949A
:100520007C008093CC029093CD029F938F938FEBAE
:1005300092E09F938F930E94F6029FEF21EE84E05A
:10054000915020408040E1F700C000000F900F90D4
:100550000F900F90DDCE0F931F93CF93DF930097F3
:1005600031F46115710519F480E090E03AC08B0117
:10057000EC016EE070E081E090E00E94E007FC0199
:10058000892B91F380E883830115110571F013879E
:10059000028781E883838091CE029091CF02892BDC
:1005A00021F4F093CF02E093CE022097C9F0D187D7
:1005B000C0878381826083838091D0029091D10231
:1005C000892B71F4F093D102E093D0028091D20292
:1005D0009091D302892B21F4F093D302E093D202BD
:1005E000CF01DF91CF911F910F910895A0E0B0E06E
:1005F000ECEFF2E00C94520AAE014B5F5F4FFA0150
:1006000061917191AF018091D0029091D1020E94CD
:100610005203E2E00C946E0A0F931F93CF93DF9383
:10062000E091D002F091D102238121FF1BC08C0107
:10063000D0E0C0E0F80181918F016091D00270910B
:10064000D102DB011896ED91FC911997882331F0C6
:100650000995892B79F3DFEFCFEFECCF8AE009958D
:10066000892B19F08FEF9FEF02C08D2F9C2FDF9108
:10067000CF911F910F910895A0E0B0E0E2E4F3E084
:100680000C94520AAE014B5F5F4FFA016191719178
:10069000AF018091CE029091CF020E94CF06E2E09E
:1006A0000C946E0AABE0B0E0E8E5F3E00C94420A8B
:1006B0006C017B018A01FC0117821682838181FF14
:1006C000CCC1CE0101963C01F6019381F70193FD67
:1006D000859193FF81917F01882309F4BAC1853206
:1006E00039F493FD859193FF81917F01853229F43F
:1006F000B60190E00E948C09E7CF912C212C312C7F
:10070000FFE1F315D8F08B3279F038F4803279F0CC
:100710008332A1F4232D20611DC08D3261F080331E
:1007200069F4232D216016C0832D8260382EE32DBD
:10073000E4603E2E2AC0F32DF8601DC037FC2DC0AA
:1007400020ED280F2A3040F08E32B9F436FC81C1FA
:10075000232D2064322E19C036FE06C08AE0989EF2
:10076000200D1124922E11C0EAE02E9E200D11249E
:10077000222EF32DF0623F2E08C08C3621F4832DFB
:100780008068382E02C0883641F4F70193FD8591C8
:1007900093FF81917F018111B3CF982F9F7D955455
:1007A000933028F40C5F1F4F9FE399830DC083366D
:1007B00031F0833771F0833509F059C021C0F80159
:1007C000808189830E5F1F4F88248394912C53016D
:1007D00013C02801F2E04F0E511CF801A080B18037
:1007E00036FE03C0692D70E002C06FEF7FEFC501D8
:1007F0000E9443094C018201F32DFF773F2E16C062
:10080000280122E0420E511CF801A080B18036FE82
:1008100003C0692D70E002C06FEF7FEFC5010E9439
:1008200031094C01F32DF0683F2E820133FC1BC0CF
:10083000822D90E088169906B0F4B60180E290E02F
:100840000E948C092A94F4CFF50137FC859137FE7C
:1008500081915F01B60190E00E948C0921102A94D9
:1008600021E0821A91088114910471F7E8C084365E
:1008700011F0893641F5F80137FE07C060817181BA
:10088000828193810C5F1F4F08C060817181072EA8
:10089000000C880B990B0E5F1F4FF32DFF763F2E38
:1008A00097FF09C090958095709561957F4F8F4F08
:1008B0009F4FF0683F2E2AE030E0A3010E94E1093B
:1008C000882E861845C0853731F4232D2F7EB22E11
:1008D0002AE030E025C0932D997FB92E8F36C1F0E4
:1008E00018F4883579F0B5C0803719F0883721F0D1
:1008F000B0C0E92FE061BE2EB4FE0DC0FB2DF46048
:10090000BF2E09C034FE0AC0292F2660B22E06C0B1
:1009100028E030E005C020E130E002C020E132E014
:10092000F801B7FE07C060817181828193810C5FFD
:100930001F4F06C06081718180E090E00E5F1F4F05
:10094000A3010E94E109882E8618FB2DFF773F2E18
:1009500036FE0DC0232D2E7FA22E891458F434FEAE
:100960000BC032FC09C0832D8E7EA82E05C0B82C8A
:10097000A32C03C0B82C01C0B92CA4FE0FC0FE01EB
:10098000E80DF11D8081803321F49A2D997EA92EE6
:1009900009C0A2FE06C0B394B39404C08A2D867821
:1009A00009F0B394A3FC11C0A0FE06C0B21488F4F1
:1009B000280C922C9B180EC0B21460F4B60180E291
:1009C00090E00E948C09B394F7CFB21418F42B185E
:1009D00002C0982C212CA4FE10C0B60180E390E048
:1009E0000E948C09A2FE17C0A1FC03C088E790E01A
:1009F00002C088E590E0B6010CC08A2D867859F0D7
:100A0000A1FE02C08BE201C080E2A7FC8DE2B6012C
:100A100090E00E948C09891438F4B60180E390E0DC
:100A20000E948C099A94F7CF8A94F301E80DF11D86
:100A30008081B60190E00E948C098110F5CF2220C0
:100A400009F442CEB60180E290E00E948C092A941B
:100A5000F6CFF6018681978102C08FEF9FEF2B962C
:100A6000E2E10C945E0A20FD09C0FC0123FD05C0F3
:100A700022FF02C07383628351834083089544FD43
:100A800017C046FD17C0AB01BC01DA01FB01AA0F7C
:100A9000BB1FEE1FFF1F1094D1F74A0F5B1F6E1F85
:100AA0007F1FCB01BA01660F771F881F991F09C0EE
:100AB00033E001C034E0660F771F881F991F315063
:100AC000D1F7620F711D811D911D08950F931F9322
:100AD000CF93DF938C01C8010E944E09EC0197FD72
:100AE00008C00E941D09892BB1F7B801CE010E94F0
:100AF000C809CE01DF91CF911F910F9108958F9278
:100B00009F92AF92BF92EF92FF920F931F93CF935A
:100B1000DF938C01D62F7A01B22E0E944E099C01E0
:100B200033272B32310531F02D32310561F48B2D15
:100B30008068B82ED15011F480E068C0C8010E94CE
:100B40004E0997FDF9CFCB2DCD7F2B2D207309F5C5
:100B50008033F9F4AA24AA94AD0E09F443C0C80165
:100B60000E944E0997FD3EC09C012F7D33272835FA
:100B7000310549F4C264D250A9F1C8010E944E095E
:100B800097FF07C02FC0B6FE02C0C26001C0C2619D
:100B9000DA2D812C912C540120ED280F283080F083
:100BA000C4FF04C0B8010E94C80919C02A3040F02F
:100BB000C6FFF8CF2F7D3FEE320F363098F7275023
:100BC0004C2FC501B4010E943F054B015C01C2607E
:100BD000D15059F0C8010E944E0997FFDDCFC1FDE9
:100BE00004C0AACF812C912C5401C7FF08C0B09437
:100BF000A09490948094811C911CA11CB11C2C2F5A
:100C0000B501A401C7010E94330581E0DF91CF91B6
:100C10001F910F91FF90EF90BF90AF909F908F909A
:100C20000895A0E2B0E0E7E1F6E00C94450A5C012B
:100C3000962E7A01F9018E010F5F1F4F680180E245
:100C4000D8011D928A95E9F7D50113968C9080E022
:100C500090E0612C712C30E061E070E083FC259124
:100C600083FE21918F01522E211103C080E090E07C
:100C700092C02E3511F4009751F1432F50E04817E0
:100C800059073CF42D3559F12D3219F4772009F12B
:100C900003C0772009F46AC0452D469546954695D0
:100CA000D601A40FB11D452D47708B0102C0000F66
:100CB000111F4A95E2F7A8015C91452B4C936514EE
:100CC00059F0561410F45394E7CF5A94E5CF31E01D
:100CD00004C07724739401C0712C0196BFCF772094
:100CE00019F08E8180628E83311103C08824839431
:100CF00017C0F6019E012F5D3F4F80818095819343
:100D00002E173F07D1F7F2CFE114F10429F0D701F4
:100D10008C93F70131967F019A94812C9920F9F0F8
:100D2000C5010E944E0997FD18C0FC01FF2723E072
:100D3000F595E7952A95E1F7EC0DFD1D208130E052
:100D4000AC014770552702C0359527954A95E2F7C3
:100D500020FDDACFB5010E94C809811087CFE114C8
:100D6000F10411F0D7011C92C80115C0422F46951D
:100D700046954695D601A40FB11D422F47708B01B1
:100D800002C0000F111F4A95E2F7A8015C91452BA4
:100D90004C93622EA2CFA096EFE00C94610AA0E0E3
:100DA000B0E0E5EDF6E00C94450A6C01EB015A0168
:100DB000FC0117821682512CF601E380FE01E3FC50
:100DC0008591E3FE8191182FEF01882309F4EEC08D
:100DD00090E00E941D09892B21F0C6010E94660542
:100DE000EBCF153241F4FE01E3FC1591E3FE1191C6
:100DF000EF01153281F4C6010E944E0997FDD4C05F
:100E0000412F50E09C01332724173507A9F2B60182
:100E10000E94C809CBC01A3239F4E3FC1591E3FEF5
:100E20001191EF0101E001C000E0F12C20ED210F54
:100E30002A3080F402606F2D70E080E090E040E2A4
:100E40000E943F05F62EFE01E3FC1591E3FE119191
:100E5000EF01ECCF01FF03C0F11003C0A7C0FF24D6
:100E6000FA94183619F01C3651F010C0FE01E3FC5C
:100E70001591E3FE1191EF01183641F4086004600A
:100E8000FE01E3FC1591E3FE1191EF01112309F43A
:100E90008DC0612F70E088E690E00E942609892BC2
:100EA00009F484C000FD07C0F50180809180C50170
:100EB00002965C0102C0812C912C1E3651F4F60181
:100EC0004681578160E070E0202FC4010E94330505
:100ED00073CF1336A9F401FD02C0FF24F394C601B9
:100EE0000E944E0997FD60C08114910429F0F4011D
:100EF0008083C40101964C01FA94F110F0CF50C0E8
:100F00001B3559F49E01A4016F2DC6010E941106E4
:100F1000EC01892B09F044C03EC0C6010E94660561
:100F200097FD42C01F3661F128F4143639F11936A5
:100F300051F128C0133771F0153701F123C0811426
:100F4000910429F0F4016082C40101964C01FA94E5
:100F5000FF2071F0C6010E944E093C0197FD08C0B8
:100F60000E941D09892B59F3B601C3010E94C809CB
:100F700081149104A9F0F401108212C0006203C030
:100F8000006101C00064202FA4016F2DC6010E94E2
:100F90007F05811105C0F6018381807329F406C0A5
:100FA00000FD0ACF539408CF552019F0852D90E00D
:100FB00002C08FEF9FEFCDB7DEB7EFE00C94610A70
:100FC0000F931F93CF93DF93869F8001879F100D10
:100FD000969F100D1124C8010E94FC07EC01009798
:100FE00029F0A80160E070E00E943C09CE01DF9189
:100FF000CF911F910F9108950F931F93CF93DF937C
:101000008230910510F482E090E0E091D602F091F8
:10101000D70220E030E0A0E0B0E0309719F1408145
:1010200051810281138148175907C8F08417950729
:1010300069F4109731F012960C93129713961C9343
:1010400027C00093D6021093D70222C02115310584
:1010500019F04217530718F49A01BD01EF01DF019F
:10106000F801DBCF21153105F9F0281B390B2430AD
:10107000310580F48A819B816115710521F0FB01A6
:101080009383828304C09093D7028093D602FE019B
:10109000329644C0FE01E20FF31F819391932250D8
:1010A0003109398328833AC02091D4023091D50286
:1010B000232B41F420910201309103013093D5029A
:1010C0002093D402209100013091010121153105B6
:1010D00041F42DB73EB74091040150910501241B06
:1010E000350BE091D402F091D502E217F307A0F49A
:1010F0002E1B3F0B2817390778F0AC014E5F5F4F6E
:101100002417350748F04E0F5F1F5093D5024093C8
:10111000D4028193919302C0E0E0F0E0CF01DF912F
:10112000CF911F910F910895CF93DF93009709F40A
:1011300081C0FC01329713821282A091D602B09135
:10114000D702109781F420813181820F931F209163
:10115000D4023091D5022817390751F5F093D50202
:10116000E093D40267C0ED0120E030E0CE17DF0746
:1011700040F44A815B819E0141155105F1F0EA017D
:10118000F5CFD383C28340815181840F951FC81747
:10119000D90759F488819981840F951F029691830C
:1011A00080838A819B81938382832115310529F471
:1011B000F093D702E093D6023DC0E901FB83EA83B6
:1011C00049915991C40FD51FEC17FD0761F4808137
:1011D0009181840F951F0296E9019983888382810A
:1011E00093819B838A83E0E0F0E012968D919C913D
:1011F0001397009719F0FD01DC01F7CF8D919C91B9
:1012000011979D012E5F3F4F820F931F2091D402B3
:101210003091D5022817390769F4309729F41092D4
:10122000D7021092D60202C013821282B093D50266
:10123000A093D402DF91CF91089591110C943F0AAD
:10124000803219F089508550C8F70895FC01059047
:10125000061621F00020D9F7C00108953197CF017B
:101260000895FC010590615070400110D8F78095F9
:1012700090958E0F9F1F0895DC0101C06D93415022
:101280005040E0F70895FC0161507040019001105A
:10129000D8F7809590958E0F9F1F0895CF93DF9379
:1012A000EC012B8120FF33C026FF0AC02F7B2B834C
:1012B0008E819F8101969F838E838A8190E029C0D1
:1012C00022FF0FC0E881F9818081082E000C990B64
:1012D000009719F420622B831AC03196F983E883B2
:1012E0000EC0EA85FB85099597FF09C02B81019601
:1012F00011F080E201C080E1822B8B8308C02E8137
:101300003F812F5F3F4F3F832E83992702C08FEF8E
:101310009FEFDF91CF9108950F931F93CF93DF93AA
:10132000FB01238121FD03C08FEF9FEF2CC022FF23
:1013300016C046815781248135814217530744F4F2
:10134000A081B1819D012F5F3F4F318320838C931A
:10135000268137812F5F3F4F3783268314C08B014F
:10136000EC01FB010084F185E02D0995892BE1F664
:10137000D80116968D919C911797019617969C937C
:101380008E931697CE01DF91CF911F910F91089503
:10139000FB01238120FF12C026FD10C08F3F3FEFCD
:1013A000930761F082832F7D206423832681378118
:1013B0002150310937832683992708958FEF9FEFB6
:1013C0000895FA01AA27283051F1203181F1E894DB
:1013D0006F936E7F6E5F7F4F8F4F9F4FAF4FB1E028
:1013E0003ED0B4E03CD0670F781F891F9A1FA11D23
:1013F000680F791F8A1F911DA11D6A0F711D811D24
:10140000911DA11D20D009F468943F912AE0269FE8
:1014100011243019305D3193DEF6CF010895462F47
:101420004770405D4193B3E00FD0C9F7F6CF462F28
:101430004F70405D4A3318F0495D31FD4052419391
:1014400002D0A9F7EACFB4E0A6959795879577954E
:101450006795BA95C9F700976105710508959B01D5
:10146000AC010A2E06945795479537952795BA955E
:10147000C9F7620F731F841F951FA01D0895992738
:10148000882708952F923F924F925F926F927F929A
:101490008F929F92AF92BF92CF92DF92EF92FF9284
:1014A0000F931F93CF93DF93CDB7DEB7CA1BDB0B30
:1014B0000FB6F894DEBF0FBECDBF09942A883988D5
:1014C00048885F846E847D848C849B84AA84B984DC
:1014D000C884DF80EE80FD800C811B81AA81B981E8
:1014E000CE0FD11D0FB6F894DEBF0FBECDBFED01FC
:0614F0000895F894FFCFFF
:1014F6000000D80220000950494E20256420697357
:1015060020736574206173204F55545055542E0A2C
:10151600000950494E2025642069732073657420A4
:10152600617320494E5055542E0A000A70696E2088
:101536003D202564096D6F6465203D202564000A01
:101546000A2A2A70696E4D6F646528292C646967BA
:101556006974616C5772697465282920616E64200C
:101566006469676974616C52656164282920666FD5
:10157600722070696E20322D313320616E642061D5
:101586006E616C6F67756552656164282920302D20
:10159600352E004D6F6465203020617320494E5012
:1015A600555420616E642031206173204F5554508C
:1015B60055542E0A00312E2050696E4D6F64652EEB
:1015C60000322E204469676974616C526561642E2D
:1015D60000332E204469676974616C5772697465BB
:1015E6002E00342E20416E616C6F67526561642E49
:1015F600000A20506C656173652073656C656374C1
:101606002061206F70656174696F6E3A09005069D8
:101616006E4D6F64653A0950494E3A2000256320A5
:10162600256300094D4F44453A20004469676974B3
:10163600616C526561643A0950494E3A200044692A
:10164600676974616C57726974653A0950494E3A14
:101656002000416E616C6F67526561643A095049BA
:101666004E3A200070696E203D20256409007B22D9
:1016760061646330223A25647D0A007B22616463DB
:1016860031223A25647D0A007B2261646332223A64
:1016960025647D0A007B2261646333223A25647DDA
:1016A6000A007B2261646334223A25647D0A007B4A
:0C16B6002261646335223A25647D0A003D
:00000001FF
